{
  "_format": "hh-sol-artifact-1",
  "contractName": "TierNFT",
  "sourceName": "contracts/TierNFT.sol",
  "abi": [
    {
      "inputs": [
        {
          "internalType": "string",
          "name": "_name",
          "type": "string"
        },
        {
          "internalType": "string",
          "name": "_symbol",
          "type": "string"
        }
      ],
      "stateMutability": "nonpayable",
      "type": "constructor"
    },
    {
      "anonymous": false,
      "inputs": [
        {
          "indexed": true,
          "internalType": "address",
          "name": "owner",
          "type": "address"
        },
        {
          "indexed": true,
          "internalType": "address",
          "name": "approved",
          "type": "address"
        },
        {
          "indexed": true,
          "internalType": "uint256",
          "name": "tokenId",
          "type": "uint256"
        }
      ],
      "name": "Approval",
      "type": "event"
    },
    {
      "anonymous": false,
      "inputs": [
        {
          "indexed": true,
          "internalType": "address",
          "name": "owner",
          "type": "address"
        },
        {
          "indexed": true,
          "internalType": "address",
          "name": "operator",
          "type": "address"
        },
        {
          "indexed": false,
          "internalType": "bool",
          "name": "approved",
          "type": "bool"
        }
      ],
      "name": "ApprovalForAll",
      "type": "event"
    },
    {
      "anonymous": false,
      "inputs": [
        {
          "indexed": true,
          "internalType": "address",
          "name": "previousOwner",
          "type": "address"
        },
        {
          "indexed": true,
          "internalType": "address",
          "name": "newOwner",
          "type": "address"
        }
      ],
      "name": "OwnershipTransferred",
      "type": "event"
    },
    {
      "anonymous": false,
      "inputs": [
        {
          "indexed": true,
          "internalType": "address",
          "name": "from",
          "type": "address"
        },
        {
          "indexed": true,
          "internalType": "address",
          "name": "to",
          "type": "address"
        },
        {
          "indexed": true,
          "internalType": "uint256",
          "name": "tokenId",
          "type": "uint256"
        }
      ],
      "name": "Transfer",
      "type": "event"
    },
    {
      "inputs": [
        {
          "internalType": "address",
          "name": "to",
          "type": "address"
        },
        {
          "internalType": "uint256",
          "name": "tokenId",
          "type": "uint256"
        }
      ],
      "name": "approve",
      "outputs": [],
      "stateMutability": "nonpayable",
      "type": "function"
    },
    {
      "inputs": [
        {
          "internalType": "address",
          "name": "owner",
          "type": "address"
        }
      ],
      "name": "balanceOf",
      "outputs": [
        {
          "internalType": "uint256",
          "name": "",
          "type": "uint256"
        }
      ],
      "stateMutability": "view",
      "type": "function"
    },
    {
      "inputs": [
        {
          "internalType": "uint256",
          "name": "tokenId",
          "type": "uint256"
        }
      ],
      "name": "getApproved",
      "outputs": [
        {
          "internalType": "address",
          "name": "",
          "type": "address"
        }
      ],
      "stateMutability": "view",
      "type": "function"
    },
    {
      "inputs": [
        {
          "internalType": "address",
          "name": "owner",
          "type": "address"
        },
        {
          "internalType": "address",
          "name": "operator",
          "type": "address"
        }
      ],
      "name": "isApprovedForAll",
      "outputs": [
        {
          "internalType": "bool",
          "name": "",
          "type": "bool"
        }
      ],
      "stateMutability": "view",
      "type": "function"
    },
    {
      "inputs": [],
      "name": "mint",
      "outputs": [],
      "stateMutability": "payable",
      "type": "function"
    },
    {
      "inputs": [],
      "name": "name",
      "outputs": [
        {
          "internalType": "string",
          "name": "",
          "type": "string"
        }
      ],
      "stateMutability": "view",
      "type": "function"
    },
    {
      "inputs": [],
      "name": "owner",
      "outputs": [
        {
          "internalType": "address",
          "name": "",
          "type": "address"
        }
      ],
      "stateMutability": "view",
      "type": "function"
    },
    {
      "inputs": [
        {
          "internalType": "uint256",
          "name": "tokenId",
          "type": "uint256"
        }
      ],
      "name": "ownerOf",
      "outputs": [
        {
          "internalType": "address",
          "name": "",
          "type": "address"
        }
      ],
      "stateMutability": "view",
      "type": "function"
    },
    {
      "inputs": [],
      "name": "renounceOwnership",
      "outputs": [],
      "stateMutability": "nonpayable",
      "type": "function"
    },
    {
      "inputs": [
        {
          "internalType": "address",
          "name": "from",
          "type": "address"
        },
        {
          "internalType": "address",
          "name": "to",
          "type": "address"
        },
        {
          "internalType": "uint256",
          "name": "tokenId",
          "type": "uint256"
        }
      ],
      "name": "safeTransferFrom",
      "outputs": [],
      "stateMutability": "nonpayable",
      "type": "function"
    },
    {
      "inputs": [
        {
          "internalType": "address",
          "name": "from",
          "type": "address"
        },
        {
          "internalType": "address",
          "name": "to",
          "type": "address"
        },
        {
          "internalType": "uint256",
          "name": "tokenId",
          "type": "uint256"
        },
        {
          "internalType": "bytes",
          "name": "data",
          "type": "bytes"
        }
      ],
      "name": "safeTransferFrom",
      "outputs": [],
      "stateMutability": "nonpayable",
      "type": "function"
    },
    {
      "inputs": [
        {
          "internalType": "address",
          "name": "operator",
          "type": "address"
        },
        {
          "internalType": "bool",
          "name": "approved",
          "type": "bool"
        }
      ],
      "name": "setApprovalForAll",
      "outputs": [],
      "stateMutability": "nonpayable",
      "type": "function"
    },
    {
      "inputs": [
        {
          "internalType": "bytes4",
          "name": "interfaceId",
          "type": "bytes4"
        }
      ],
      "name": "supportsInterface",
      "outputs": [
        {
          "internalType": "bool",
          "name": "",
          "type": "bool"
        }
      ],
      "stateMutability": "view",
      "type": "function"
    },
    {
      "inputs": [],
      "name": "symbol",
      "outputs": [
        {
          "internalType": "string",
          "name": "",
          "type": "string"
        }
      ],
      "stateMutability": "view",
      "type": "function"
    },
    {
      "inputs": [
        {
          "internalType": "uint256",
          "name": "",
          "type": "uint256"
        }
      ],
      "name": "tokenTier",
      "outputs": [
        {
          "internalType": "uint256",
          "name": "",
          "type": "uint256"
        }
      ],
      "stateMutability": "view",
      "type": "function"
    },
    {
      "inputs": [
        {
          "internalType": "uint256",
          "name": "tokenId",
          "type": "uint256"
        }
      ],
      "name": "tokenURI",
      "outputs": [
        {
          "internalType": "string",
          "name": "",
          "type": "string"
        }
      ],
      "stateMutability": "view",
      "type": "function"
    },
    {
      "inputs": [],
      "name": "totalSupply",
      "outputs": [
        {
          "internalType": "uint256",
          "name": "",
          "type": "uint256"
        }
      ],
      "stateMutability": "view",
      "type": "function"
    },
    {
      "inputs": [
        {
          "internalType": "address",
          "name": "from",
          "type": "address"
        },
        {
          "internalType": "address",
          "name": "to",
          "type": "address"
        },
        {
          "internalType": "uint256",
          "name": "tokenId",
          "type": "uint256"
        }
      ],
      "name": "transferFrom",
      "outputs": [],
      "stateMutability": "nonpayable",
      "type": "function"
    },
    {
      "inputs": [
        {
          "internalType": "address",
          "name": "newOwner",
          "type": "address"
        }
      ],
      "name": "transferOwnership",
      "outputs": [],
      "stateMutability": "nonpayable",
      "type": "function"
    },
    {
      "inputs": [],
      "name": "withdraw",
      "outputs": [],
      "stateMutability": "nonpayable",
      "type": "function"
    }
  ],
  "bytecode": "0x60806040523480156200001157600080fd5b5060405162003e8538038062003e858339818101604052810190620000379190620003b0565b818181600090805190602001906200005192919062000163565b5080600190805190602001906200006a92919062000163565b5050506200008d620000816200009560201b60201c565b6200009d60201b60201c565b50506200049a565b600033905090565b6000600660009054906101000a900473ffffffffffffffffffffffffffffffffffffffff16905081600660006101000a81548173ffffffffffffffffffffffffffffffffffffffff021916908373ffffffffffffffffffffffffffffffffffffffff1602179055508173ffffffffffffffffffffffffffffffffffffffff168173ffffffffffffffffffffffffffffffffffffffff167f8be0079c531659141344cd1fd0a4f28419497f9722a3daafe3b4186f6b6457e060405160405180910390a35050565b828054620001719062000464565b90600052602060002090601f016020900481019282620001955760008555620001e1565b82601f10620001b057805160ff1916838001178555620001e1565b82800160010185558215620001e1579182015b82811115620001e0578251825591602001919060010190620001c3565b5b509050620001f09190620001f4565b5090565b5b808211156200020f576000816000905550600101620001f5565b5090565b6000604051905090565b600080fd5b600080fd5b600080fd5b600080fd5b6000601f19601f8301169050919050565b7f4e487b7100000000000000000000000000000000000000000000000000000000600052604160045260246000fd5b6200027c8262000231565b810181811067ffffffffffffffff821117156200029e576200029d62000242565b5b80604052505050565b6000620002b362000213565b9050620002c1828262000271565b919050565b600067ffffffffffffffff821115620002e457620002e362000242565b5b620002ef8262000231565b9050602081019050919050565b60005b838110156200031c578082015181840152602081019050620002ff565b838111156200032c576000848401525b50505050565b6000620003496200034384620002c6565b620002a7565b9050828152602081018484840111156200036857620003676200022c565b5b62000375848285620002fc565b509392505050565b600082601f83011262000395576200039462000227565b5b8151620003a784826020860162000332565b91505092915050565b60008060408385031215620003ca57620003c96200021d565b5b600083015167ffffffffffffffff811115620003eb57620003ea62000222565b5b620003f9858286016200037d565b925050602083015167ffffffffffffffff8111156200041d576200041c62000222565b5b6200042b858286016200037d565b9150509250929050565b7f4e487b7100000000000000000000000000000000000000000000000000000000600052602260045260246000fd5b600060028204905060018216806200047d57607f821691505b6020821081141562000494576200049362000435565b5b50919050565b6139db80620004aa6000396000f3fe60806040526004361061011f5760003560e01c8063649e705f116100a0578063a22cb46511610064578063a22cb465146103b4578063b88d4fde146103dd578063c87b56dd14610406578063e985e9c514610443578063f2fde38b146104805761011f565b8063649e705f146102cd57806370a082311461030a578063715018a6146103475780638da5cb5b1461035e57806395d89b41146103895761011f565b806318160ddd116100e757806318160ddd146101fc57806323b872dd146102275780633ccfd60b1461025057806342842e0e146102675780636352211e146102905761011f565b806301ffc9a71461012457806306fdde0314610161578063081812fc1461018c578063095ea7b3146101c95780631249c58b146101f2575b600080fd5b34801561013057600080fd5b5061014b60048036038101906101469190611ee3565b6104a9565b6040516101589190611f2b565b60405180910390f35b34801561016d57600080fd5b5061017661058b565b6040516101839190611fdf565b60405180910390f35b34801561019857600080fd5b506101b360048036038101906101ae9190612037565b61061d565b6040516101c091906120a5565b60405180910390f35b3480156101d557600080fd5b506101f060048036038101906101eb91906120ec565b610663565b005b6101fa61077b565b005b34801561020857600080fd5b50610211610833565b60405161021e919061213b565b60405180910390f35b34801561023357600080fd5b5061024e60048036038101906102499190612156565b610839565b005b34801561025c57600080fd5b50610265610899565b005b34801561027357600080fd5b5061028e60048036038101906102899190612156565b6109a0565b005b34801561029c57600080fd5b506102b760048036038101906102b29190612037565b6109c0565b6040516102c491906120a5565b60405180910390f35b3480156102d957600080fd5b506102f460048036038101906102ef9190612037565b610a72565b604051610301919061213b565b60405180910390f35b34801561031657600080fd5b50610331600480360381019061032c91906121a9565b610a8a565b60405161033e919061213b565b60405180910390f35b34801561035357600080fd5b5061035c610b42565b005b34801561036a57600080fd5b50610373610b56565b60405161038091906120a5565b60405180910390f35b34801561039557600080fd5b5061039e610b80565b6040516103ab9190611fdf565b60405180910390f35b3480156103c057600080fd5b506103db60048036038101906103d69190612202565b610c12565b005b3480156103e957600080fd5b5061040460048036038101906103ff9190612377565b610c28565b005b34801561041257600080fd5b5061042d60048036038101906104289190612037565b610c8a565b60405161043a9190611fdf565b60405180910390f35b34801561044f57600080fd5b5061046a600480360381019061046591906123fa565b610ea7565b6040516104779190611f2b565b60405180910390f35b34801561048c57600080fd5b506104a760048036038101906104a291906121a9565b610f3b565b005b60007f80ac58cd000000000000000000000000000000000000000000000000000000007bffffffffffffffffffffffffffffffffffffffffffffffffffffffff1916827bffffffffffffffffffffffffffffffffffffffffffffffffffffffff1916148061057457507f5b5e139f000000000000000000000000000000000000000000000000000000007bffffffffffffffffffffffffffffffffffffffffffffffffffffffff1916827bffffffffffffffffffffffffffffffffffffffffffffffffffffffff1916145b80610584575061058382610fbf565b5b9050919050565b60606000805461059a90612469565b80601f01602080910402602001604051908101604052809291908181526020018280546105c690612469565b80156106135780601f106105e857610100808354040283529160200191610613565b820191906000526020600020905b8154815290600101906020018083116105f657829003601f168201915b5050505050905090565b600061062882611029565b6004600083815260200190815260200160002060009054906101000a900473ffffffffffffffffffffffffffffffffffffffff169050919050565b600061066e826109c0565b90508073ffffffffffffffffffffffffffffffffffffffff168373ffffffffffffffffffffffffffffffffffffffff1614156106df576040517f08c379a00000000000000000000000000000000000000000000000000000000081526004016106d69061250d565b60405180910390fd5b8073ffffffffffffffffffffffffffffffffffffffff166106fe611074565b73ffffffffffffffffffffffffffffffffffffffff16148061072d575061072c81610727611074565b610ea7565b5b61076c576040517f08c379a00000000000000000000000000000000000000000000000000000000081526004016107639061259f565b60405180910390fd5b610776838361107c565b505050565b662386f26fc100003410156107c5576040517f08c379a00000000000000000000000000000000000000000000000000000000081526004016107bc90612631565b60405180910390fd5b600066b1a2bc2ec5000034106107de57600290506107f2565b66470de4df82000034106107f157600190505b5b6007600081548092919061080590612680565b919050555061081633600754611135565b806008600060075481526020019081526020016000208190555050565b60075481565b61084a610844611074565b82611153565b610889576040517f08c379a00000000000000000000000000000000000000000000000000000000081526004016108809061273b565b60405180910390fd5b6108948383836111e8565b505050565b6108a161144f565b6000479050600081116108e9576040517f08c379a00000000000000000000000000000000000000000000000000000000081526004016108e0906127a7565b60405180910390fd5b60006108f3610b56565b73ffffffffffffffffffffffffffffffffffffffff1682604051610916906127f8565b60006040518083038185875af1925050503d8060008114610953576040519150601f19603f3d011682016040523d82523d6000602084013e610958565b606091505b505090508061099c576040517f08c379a000000000000000000000000000000000000000000000000000000000815260040161099390612859565b60405180910390fd5b5050565b6109bb83838360405180602001604052806000815250610c28565b505050565b6000806002600084815260200190815260200160002060009054906101000a900473ffffffffffffffffffffffffffffffffffffffff169050600073ffffffffffffffffffffffffffffffffffffffff168173ffffffffffffffffffffffffffffffffffffffff161415610a69576040517f08c379a0000000000000000000000000000000000000000000000000000000008152600401610a60906128c5565b60405180910390fd5b80915050919050565b60086020528060005260406000206000915090505481565b60008073ffffffffffffffffffffffffffffffffffffffff168273ffffffffffffffffffffffffffffffffffffffff161415610afb576040517f08c379a0000000000000000000000000000000000000000000000000000000008152600401610af290612957565b60405180910390fd5b600360008373ffffffffffffffffffffffffffffffffffffffff1673ffffffffffffffffffffffffffffffffffffffff168152602001908152602001600020549050919050565b610b4a61144f565b610b5460006114cd565b565b6000600660009054906101000a900473ffffffffffffffffffffffffffffffffffffffff16905090565b606060018054610b8f90612469565b80601f0160208091040260200160405190810160405280929190818152602001828054610bbb90612469565b8015610c085780601f10610bdd57610100808354040283529160200191610c08565b820191906000526020600020905b815481529060010190602001808311610beb57829003601f168201915b5050505050905090565b610c24610c1d611074565b8383611593565b5050565b610c39610c33611074565b83611153565b610c78576040517f08c379a0000000000000000000000000000000000000000000000000000000008152600401610c6f9061273b565b60405180910390fd5b610c8484848484611700565b50505050565b6060610c958261175c565b610cd4576040517f08c379a0000000000000000000000000000000000000000000000000000000008152600401610ccb906129c3565b60405180910390fd5b60006002600860008581526020019081526020016000205414610d83576001600860008581526020019081526020016000205414610d47576040518060400160405280600581526020017f4261736963000000000000000000000000000000000000000000000000000000815250610d7e565b6040518060400160405280600681526020017f4d656469756d00000000000000000000000000000000000000000000000000008152505b610dba565b6040518060400160405280600781526020017f5072656d69756d000000000000000000000000000000000000000000000000008152505b905060006040518061060001604052806105c581526020016133a16105c59139826040518060400160405280601181526020017f3c2f746578743e3c2f673e3c2f7376673e000000000000000000000000000000815250604051602001610e2393929190612a1f565b60405160208183030381529060405290506000610e7b610e4161058b565b610e4a876117c8565b610e5385611929565b86604051602001610e679493929190612c3e565b604051602081830303815290604052611929565b905080604051602001610e8e9190612cff565b6040516020818303038152906040529350505050919050565b6000600560008473ffffffffffffffffffffffffffffffffffffffff1673ffffffffffffffffffffffffffffffffffffffff16815260200190815260200160002060008373ffffffffffffffffffffffffffffffffffffffff1673ffffffffffffffffffffffffffffffffffffffff16815260200190815260200160002060009054906101000a900460ff16905092915050565b610f4361144f565b600073ffffffffffffffffffffffffffffffffffffffff168173ffffffffffffffffffffffffffffffffffffffff161415610fb3576040517f08c379a0000000000000000000000000000000000000000000000000000000008152600401610faa90612d93565b60405180910390fd5b610fbc816114cd565b50565b60007f01ffc9a7000000000000000000000000000000000000000000000000000000007bffffffffffffffffffffffffffffffffffffffffffffffffffffffff1916827bffffffffffffffffffffffffffffffffffffffffffffffffffffffff1916149050919050565b6110328161175c565b611071576040517f08c379a0000000000000000000000000000000000000000000000000000000008152600401611068906128c5565b60405180910390fd5b50565b600033905090565b816004600083815260200190815260200160002060006101000a81548173ffffffffffffffffffffffffffffffffffffffff021916908373ffffffffffffffffffffffffffffffffffffffff160217905550808273ffffffffffffffffffffffffffffffffffffffff166110ef836109c0565b73ffffffffffffffffffffffffffffffffffffffff167f8c5be1e5ebec7d5bd14f71427d1e84f3dd0314c0f7b2291e5b200ac8c7c3b92560405160405180910390a45050565b61114f828260405180602001604052806000815250611a8d565b5050565b60008061115f836109c0565b90508073ffffffffffffffffffffffffffffffffffffffff168473ffffffffffffffffffffffffffffffffffffffff1614806111a157506111a08185610ea7565b5b806111df57508373ffffffffffffffffffffffffffffffffffffffff166111c78461061d565b73ffffffffffffffffffffffffffffffffffffffff16145b91505092915050565b8273ffffffffffffffffffffffffffffffffffffffff16611208826109c0565b73ffffffffffffffffffffffffffffffffffffffff161461125e576040517f08c379a000000000000000000000000000000000000000000000000000000000815260040161125590612e25565b60405180910390fd5b600073ffffffffffffffffffffffffffffffffffffffff168273ffffffffffffffffffffffffffffffffffffffff1614156112ce576040517f08c379a00000000000000000000000000000000000000000000000000000000081526004016112c590612eb7565b60405180910390fd5b6112d9838383611ae8565b6112e460008261107c565b6001600360008573ffffffffffffffffffffffffffffffffffffffff1673ffffffffffffffffffffffffffffffffffffffff16815260200190815260200160002060008282546113349190612ed7565b925050819055506001600360008473ffffffffffffffffffffffffffffffffffffffff1673ffffffffffffffffffffffffffffffffffffffff168152602001908152602001600020600082825461138b9190612f0b565b92505081905550816002600083815260200190815260200160002060006101000a81548173ffffffffffffffffffffffffffffffffffffffff021916908373ffffffffffffffffffffffffffffffffffffffff160217905550808273ffffffffffffffffffffffffffffffffffffffff168473ffffffffffffffffffffffffffffffffffffffff167fddf252ad1be2c89b69c2b068fc378daa952ba7f163c4a11628f55a4df523b3ef60405160405180910390a461144a838383611aed565b505050565b611457611074565b73ffffffffffffffffffffffffffffffffffffffff16611475610b56565b73ffffffffffffffffffffffffffffffffffffffff16146114cb576040517f08c379a00000000000000000000000000000000000000000000000000000000081526004016114c290612fad565b60405180910390fd5b565b6000600660009054906101000a900473ffffffffffffffffffffffffffffffffffffffff16905081600660006101000a81548173ffffffffffffffffffffffffffffffffffffffff021916908373ffffffffffffffffffffffffffffffffffffffff1602179055508173ffffffffffffffffffffffffffffffffffffffff168173ffffffffffffffffffffffffffffffffffffffff167f8be0079c531659141344cd1fd0a4f28419497f9722a3daafe3b4186f6b6457e060405160405180910390a35050565b8173ffffffffffffffffffffffffffffffffffffffff168373ffffffffffffffffffffffffffffffffffffffff161415611602576040517f08c379a00000000000000000000000000000000000000000000000000000000081526004016115f990613019565b60405180910390fd5b80600560008573ffffffffffffffffffffffffffffffffffffffff1673ffffffffffffffffffffffffffffffffffffffff16815260200190815260200160002060008473ffffffffffffffffffffffffffffffffffffffff1673ffffffffffffffffffffffffffffffffffffffff16815260200190815260200160002060006101000a81548160ff0219169083151502179055508173ffffffffffffffffffffffffffffffffffffffff168373ffffffffffffffffffffffffffffffffffffffff167f17307eab39ab6107e8899845ad3d59bd9653f200f220920489ca2b5937696c31836040516116f39190611f2b565b60405180910390a3505050565b61170b8484846111e8565b61171784848484611af2565b611756576040517f08c379a000000000000000000000000000000000000000000000000000000000815260040161174d906130ab565b60405180910390fd5b50505050565b60008073ffffffffffffffffffffffffffffffffffffffff166002600084815260200190815260200160002060009054906101000a900473ffffffffffffffffffffffffffffffffffffffff1673ffffffffffffffffffffffffffffffffffffffff1614159050919050565b60606000821415611810576040518060400160405280600181526020017f30000000000000000000000000000000000000000000000000000000000000008152509050611924565b600082905060005b6000821461184257808061182b90612680565b915050600a8261183b91906130fa565b9150611818565b60008167ffffffffffffffff81111561185e5761185d61224c565b5b6040519080825280601f01601f1916602001820160405280156118905781602001600182028036833780820191505090505b5090505b6000851461191d576001826118a99190612ed7565b9150600a856118b8919061312b565b60306118c49190612f0b565b60f81b8183815181106118da576118d961315c565b5b60200101907effffffffffffffffffffffffffffffffffffffffffffffffffffffffffffff1916908160001a905350600a8561191691906130fa565b9450611894565b8093505050505b919050565b606060008251141561194c57604051806020016040528060008152509050611a88565b6000604051806060016040528060408152602001613966604091399050600060036002855161197b9190612f0b565b61198591906130fa565b6004611991919061318b565b67ffffffffffffffff8111156119aa576119a961224c565b5b6040519080825280601f01601f1916602001820160405280156119dc5781602001600182028036833780820191505090505b509050600182016020820185865187015b80821015611a48576003820191508151603f8160121c168501518453600184019350603f81600c1c168501518453600184019350603f8160061c168501518453600184019350603f81168501518453600184019350506119ed565b5050600386510660018114611a645760028114611a7757611a7f565b603d6001830353603d6002830353611a7f565b603d60018303535b50505080925050505b919050565b611a978383611c7a565b611aa46000848484611af2565b611ae3576040517f08c379a0000000000000000000000000000000000000000000000000000000008152600401611ada906130ab565b60405180910390fd5b505050565b505050565b505050565b6000611b138473ffffffffffffffffffffffffffffffffffffffff16611e54565b15611c6d578373ffffffffffffffffffffffffffffffffffffffff1663150b7a02611b3c611074565b8786866040518563ffffffff1660e01b8152600401611b5e949392919061323a565b6020604051808303816000875af1925050508015611b9a57506040513d601f19601f82011682018060405250810190611b97919061329b565b60015b611c1d573d8060008114611bca576040519150601f19603f3d011682016040523d82523d6000602084013e611bcf565b606091505b50600081511415611c15576040517f08c379a0000000000000000000000000000000000000000000000000000000008152600401611c0c906130ab565b60405180910390fd5b805181602001fd5b63150b7a0260e01b7bffffffffffffffffffffffffffffffffffffffffffffffffffffffff1916817bffffffffffffffffffffffffffffffffffffffffffffffffffffffff191614915050611c72565b600190505b949350505050565b600073ffffffffffffffffffffffffffffffffffffffff168273ffffffffffffffffffffffffffffffffffffffff161415611cea576040517f08c379a0000000000000000000000000000000000000000000000000000000008152600401611ce190613314565b60405180910390fd5b611cf38161175c565b15611d33576040517f08c379a0000000000000000000000000000000000000000000000000000000008152600401611d2a90613380565b60405180910390fd5b611d3f60008383611ae8565b6001600360008473ffffffffffffffffffffffffffffffffffffffff1673ffffffffffffffffffffffffffffffffffffffff1681526020019081526020016000206000828254611d8f9190612f0b565b92505081905550816002600083815260200190815260200160002060006101000a81548173ffffffffffffffffffffffffffffffffffffffff021916908373ffffffffffffffffffffffffffffffffffffffff160217905550808273ffffffffffffffffffffffffffffffffffffffff16600073ffffffffffffffffffffffffffffffffffffffff167fddf252ad1be2c89b69c2b068fc378daa952ba7f163c4a11628f55a4df523b3ef60405160405180910390a4611e5060008383611aed565b5050565b6000808273ffffffffffffffffffffffffffffffffffffffff163b119050919050565b6000604051905090565b600080fd5b600080fd5b60007fffffffff0000000000000000000000000000000000000000000000000000000082169050919050565b611ec081611e8b565b8114611ecb57600080fd5b50565b600081359050611edd81611eb7565b92915050565b600060208284031215611ef957611ef8611e81565b5b6000611f0784828501611ece565b91505092915050565b60008115159050919050565b611f2581611f10565b82525050565b6000602082019050611f406000830184611f1c565b92915050565b600081519050919050565b600082825260208201905092915050565b60005b83811015611f80578082015181840152602081019050611f65565b83811115611f8f576000848401525b50505050565b6000601f19601f8301169050919050565b6000611fb182611f46565b611fbb8185611f51565b9350611fcb818560208601611f62565b611fd481611f95565b840191505092915050565b60006020820190508181036000830152611ff98184611fa6565b905092915050565b6000819050919050565b61201481612001565b811461201f57600080fd5b50565b6000813590506120318161200b565b92915050565b60006020828403121561204d5761204c611e81565b5b600061205b84828501612022565b91505092915050565b600073ffffffffffffffffffffffffffffffffffffffff82169050919050565b600061208f82612064565b9050919050565b61209f81612084565b82525050565b60006020820190506120ba6000830184612096565b92915050565b6120c981612084565b81146120d457600080fd5b50565b6000813590506120e6816120c0565b92915050565b6000806040838503121561210357612102611e81565b5b6000612111858286016120d7565b925050602061212285828601612022565b9150509250929050565b61213581612001565b82525050565b6000602082019050612150600083018461212c565b92915050565b60008060006060848603121561216f5761216e611e81565b5b600061217d868287016120d7565b935050602061218e868287016120d7565b925050604061219f86828701612022565b9150509250925092565b6000602082840312156121bf576121be611e81565b5b60006121cd848285016120d7565b91505092915050565b6121df81611f10565b81146121ea57600080fd5b50565b6000813590506121fc816121d6565b92915050565b6000806040838503121561221957612218611e81565b5b6000612227858286016120d7565b9250506020612238858286016121ed565b9150509250929050565b600080fd5b600080fd5b7f4e487b7100000000000000000000000000000000000000000000000000000000600052604160045260246000fd5b61228482611f95565b810181811067ffffffffffffffff821117156122a3576122a261224c565b5b80604052505050565b60006122b6611e77565b90506122c2828261227b565b919050565b600067ffffffffffffffff8211156122e2576122e161224c565b5b6122eb82611f95565b9050602081019050919050565b82818337600083830152505050565b600061231a612315846122c7565b6122ac565b90508281526020810184848401111561233657612335612247565b5b6123418482856122f8565b509392505050565b600082601f83011261235e5761235d612242565b5b813561236e848260208601612307565b91505092915050565b6000806000806080858703121561239157612390611e81565b5b600061239f878288016120d7565b94505060206123b0878288016120d7565b93505060406123c187828801612022565b925050606085013567ffffffffffffffff8111156123e2576123e1611e86565b5b6123ee87828801612349565b91505092959194509250565b6000806040838503121561241157612410611e81565b5b600061241f858286016120d7565b9250506020612430858286016120d7565b9150509250929050565b7f4e487b7100000000000000000000000000000000000000000000000000000000600052602260045260246000fd5b6000600282049050600182168061248157607f821691505b602082108114156124955761249461243a565b5b50919050565b7f4552433732313a20617070726f76616c20746f2063757272656e74206f776e6560008201527f7200000000000000000000000000000000000000000000000000000000000000602082015250565b60006124f7602183611f51565b91506125028261249b565b604082019050919050565b60006020820190508181036000830152612526816124ea565b9050919050565b7f4552433732313a20617070726f76652063616c6c6572206973206e6f7420746f60008201527f6b656e206f776e6572206e6f7220617070726f76656420666f7220616c6c0000602082015250565b6000612589603e83611f51565b91506125948261252d565b604082019050919050565b600060208201905081810360008301526125b88161257c565b9050919050565b7f4e6f7420656e6f7567682076616c756520666f7220746865206d696e696d756d60008201527f2054696572000000000000000000000000000000000000000000000000000000602082015250565b600061261b602583611f51565b9150612626826125bf565b604082019050919050565b6000602082019050818103600083015261264a8161260e565b9050919050565b7f4e487b7100000000000000000000000000000000000000000000000000000000600052601160045260246000fd5b600061268b82612001565b91507fffffffffffffffffffffffffffffffffffffffffffffffffffffffffffffffff8214156126be576126bd612651565b5b600182019050919050565b7f4552433732313a2063616c6c6572206973206e6f7420746f6b656e206f776e6560008201527f72206e6f7220617070726f766564000000000000000000000000000000000000602082015250565b6000612725602e83611f51565b9150612730826126c9565b604082019050919050565b6000602082019050818103600083015261275481612718565b9050919050565b7f42616c616e63652073686f756c64206265203e20300000000000000000000000600082015250565b6000612791601583611f51565b915061279c8261275b565b602082019050919050565b600060208201905081810360008301526127c081612784565b9050919050565b600081905092915050565b50565b60006127e26000836127c7565b91506127ed826127d2565b600082019050919050565b6000612803826127d5565b9150819050919050565b7f5769746864726177206661696c65640000000000000000000000000000000000600082015250565b6000612843600f83611f51565b915061284e8261280d565b602082019050919050565b6000602082019050818103600083015261287281612836565b9050919050565b7f4552433732313a20696e76616c696420746f6b656e2049440000000000000000600082015250565b60006128af601883611f51565b91506128ba82612879565b602082019050919050565b600060208201905081810360008301526128de816128a2565b9050919050565b7f4552433732313a2061646472657373207a65726f206973206e6f74206120766160008201527f6c6964206f776e65720000000000000000000000000000000000000000000000602082015250565b6000612941602983611f51565b915061294c826128e5565b604082019050919050565b6000602082019050818103600083015261297081612934565b9050919050565b7f4e6f6e6578697374656e7420746f6b656e000000000000000000000000000000600082015250565b60006129ad601183611f51565b91506129b882612977565b602082019050919050565b600060208201905081810360008301526129dc816129a0565b9050919050565b600081905092915050565b60006129f982611f46565b612a0381856129e3565b9350612a13818560208601611f62565b80840191505092915050565b6000612a2b82866129ee565b9150612a3782856129ee565b9150612a4382846129ee565b9150819050949350505050565b7f7b226e616d65223a202200000000000000000000000000000000000000000000600082015250565b6000612a86600a836129e3565b9150612a9182612a50565b600a82019050919050565b7f2023000000000000000000000000000000000000000000000000000000000000600082015250565b6000612ad26002836129e3565b9150612add82612a9c565b600282019050919050565b7f222c20226465736372697074696f6e223a2022546965724e46547320636f6c6c60008201527f656374696f6e222c2022696d616765223a2022646174613a696d6167652f737660208201527f672b786d6c3b6261736536342c00000000000000000000000000000000000000604082015250565b6000612b6a604d836129e3565b9150612b7582612ae8565b604d82019050919050565b7f222c2261747472696275746573223a5b7b2274726169745f74797065223a202260008201527f54696572222c202276616c7565223a2022000000000000000000000000000000602082015250565b6000612bdc6031836129e3565b9150612be782612b80565b603182019050919050565b7f22207d5d7d000000000000000000000000000000000000000000000000000000600082015250565b6000612c286005836129e3565b9150612c3382612bf2565b600582019050919050565b6000612c4982612a79565b9150612c5582876129ee565b9150612c6082612ac5565b9150612c6c82866129ee565b9150612c7782612b5d565b9150612c8382856129ee565b9150612c8e82612bcf565b9150612c9a82846129ee565b9150612ca582612c1b565b915081905095945050505050565b7f646174613a6170706c69636174696f6e2f6a736f6e3b6261736536342c000000600082015250565b6000612ce9601d836129e3565b9150612cf482612cb3565b601d82019050919050565b6000612d0a82612cdc565b9150612d1682846129ee565b915081905092915050565b7f4f776e61626c653a206e6577206f776e657220697320746865207a65726f206160008201527f6464726573730000000000000000000000000000000000000000000000000000602082015250565b6000612d7d602683611f51565b9150612d8882612d21565b604082019050919050565b60006020820190508181036000830152612dac81612d70565b9050919050565b7f4552433732313a207472616e736665722066726f6d20696e636f72726563742060008201527f6f776e6572000000000000000000000000000000000000000000000000000000602082015250565b6000612e0f602583611f51565b9150612e1a82612db3565b604082019050919050565b60006020820190508181036000830152612e3e81612e02565b9050919050565b7f4552433732313a207472616e7366657220746f20746865207a65726f2061646460008201527f7265737300000000000000000000000000000000000000000000000000000000602082015250565b6000612ea1602483611f51565b9150612eac82612e45565b604082019050919050565b60006020820190508181036000830152612ed081612e94565b9050919050565b6000612ee282612001565b9150612eed83612001565b925082821015612f0057612eff612651565b5b828203905092915050565b6000612f1682612001565b9150612f2183612001565b9250827fffffffffffffffffffffffffffffffffffffffffffffffffffffffffffffffff03821115612f5657612f55612651565b5b828201905092915050565b7f4f776e61626c653a2063616c6c6572206973206e6f7420746865206f776e6572600082015250565b6000612f97602083611f51565b9150612fa282612f61565b602082019050919050565b60006020820190508181036000830152612fc681612f8a565b9050919050565b7f4552433732313a20617070726f766520746f2063616c6c657200000000000000600082015250565b6000613003601983611f51565b915061300e82612fcd565b602082019050919050565b6000602082019050818103600083015261303281612ff6565b9050919050565b7f4552433732313a207472616e7366657220746f206e6f6e20455243373231526560008201527f63656976657220696d706c656d656e7465720000000000000000000000000000602082015250565b6000613095603283611f51565b91506130a082613039565b604082019050919050565b600060208201905081810360008301526130c481613088565b9050919050565b7f4e487b7100000000000000000000000000000000000000000000000000000000600052601260045260246000fd5b600061310582612001565b915061311083612001565b9250826131205761311f6130cb565b5b828204905092915050565b600061313682612001565b915061314183612001565b925082613151576131506130cb565b5b828206905092915050565b7f4e487b7100000000000000000000000000000000000000000000000000000000600052603260045260246000fd5b600061319682612001565b91506131a183612001565b9250817fffffffffffffffffffffffffffffffffffffffffffffffffffffffffffffffff04831182151516156131da576131d9612651565b5b828202905092915050565b600081519050919050565b600082825260208201905092915050565b600061320c826131e5565b61321681856131f0565b9350613226818560208601611f62565b61322f81611f95565b840191505092915050565b600060808201905061324f6000830187612096565b61325c6020830186612096565b613269604083018561212c565b818103606083015261327b8184613201565b905095945050505050565b60008151905061329581611eb7565b92915050565b6000602082840312156132b1576132b0611e81565b5b60006132bf84828501613286565b91505092915050565b7f4552433732313a206d696e7420746f20746865207a65726f2061646472657373600082015250565b60006132fe602083611f51565b9150613309826132c8565b602082019050919050565b6000602082019050818103600083015261332d816132f1565b9050919050565b7f4552433732313a20746f6b656e20616c7265616479206d696e74656400000000600082015250565b600061336a601c83611f51565b915061337582613334565b602082019050919050565b600060208201905081810360008301526133998161335d565b905091905056fe3c73766720786d6c6e733d22687474703a2f2f7777772e77332e6f72672f323030302f737667222077696474683d2235303022206865696768743d22353030222066696c6c3d226e6f6e652220666f6e742d66616d696c793d2273616e732d7365726966223e3c646566733e3c66696c7465722069643d22412220636f6c6f722d696e746572706f6c6174696f6e2d66696c746572733d2273524742222066696c746572556e6974733d227573657253706163654f6e55736522206865696768743d22353030222077696474683d22353030223e3c666544726f70536861646f772064783d2231222064793d22322220737464446576696174696f6e3d22382220666c6f6f642d6f7061636974793d222e3637222077696474683d223230302522206865696768743d223230302522202f3e3c2f66696c7465723e3c6c696e6561724772616469656e742069643d2242222078313d2230222079313d2230222078323d223135303030222079323d223022206772616469656e74556e6974733d227573657253706163654f6e557365223e3c73746f70206f66667365743d222e3035222073746f702d636f6c6f723d222361643030666622202f3e3c73746f70206f66667365743d222e3233222073746f702d636f6c6f723d222334653030656322202f3e3c73746f70206f66667365743d222e3431222073746f702d636f6c6f723d222366663030663522202f3e3c73746f70206f66667365743d222e3539222073746f702d636f6c6f723d222365306530653022202f3e3c73746f70206f66667365743d222e3737222073746f702d636f6c6f723d222366666438313022202f3e3c73746f70206f66667365743d222e3935222073746f702d636f6c6f723d222361643030666622202f3e3c2f6c696e6561724772616469656e743e3c6c696e6561724772616469656e742069643d2243222078313d2230222079313d223630222078323d2230222079323d2231313022206772616469656e74556e6974733d227573657253706163654f6e557365223e3c73746f702073746f702d636f6c6f723d222364303430623822202f3e3c73746f70206f66667365743d2231222073746f702d636f6c6f723d222365306530653022202f3e3c2f6c696e6561724772616469656e743e3c2f646566733e3c706174682066696c6c3d2275726c282342292220643d224d3020306831353030307635303048307a223e3c616e696d6174655472616e73666f726d206174747269627574654e616d653d227472616e73666f726d2220617474726962757465547970653d22584d4c2220747970653d227472616e736c617465222066726f6d3d223020302220746f3d222d3134353030203022206475723d223136732220726570656174436f756e743d22696e646566696e69746522202f3e3c2f706174683e3c636972636c652066696c6c3d2223316431653230222063783d22313030222063793d2239302220723d223435222066696c7465723d2275726c2823412922202f3e3c7465787420783d223130312220793d2239392220746578742d616e63686f723d226d6964646c652220636c6173733d226e66744c6f676f2220666f6e742d73697a653d2233327078222066696c6c3d2275726c28234329222066696c7465723d2275726c28234129223e445f443c616e696d6174655472616e73666f726d206174747269627574654e616d653d227472616e73666f726d2220617474726962757465547970653d22584d4c2220747970653d22726f74617465222066726f6d3d2230203130302039302220746f3d223336302031303020393022206475723d2235732220726570656174436f756e743d22696e646566696e69746522202f3e3c2f746578743e3c6720666f6e742d73697a653d223332222066696c6c3d2223666666222066696c7465723d2275726c28234129223e3c7465787420783d223235302220793d223238302220746578742d616e63686f723d226d6964646c652220636c6173733d22746965724e616d65223e4142434445464748494a4b4c4d4e4f505152535455565758595a6162636465666768696a6b6c6d6e6f707172737475767778797a303132333435363738392b2fa2646970667358221220372141c1b6cbeb9e40e82b4a53c33b0bbd70d5c63e974a7e1223546ec179815464736f6c634300080c0033",
  "linkReferences": {},
  "deployedLinkReferences": {}
}